{
  "contractName": "DIDRegistry",
  "abi": [
    {
      "anonymous": false,
      "inputs": [
        {
          "indexed": true,
          "internalType": "string",
          "name": "did",
          "type": "string"
        },
        {
          "indexed": false,
          "internalType": "address",
          "name": "owner",
          "type": "address"
        }
      ],
      "name": "DIDRegistered",
      "type": "event"
    },
    {
      "inputs": [
        {
          "internalType": "string",
          "name": "",
          "type": "string"
        }
      ],
      "name": "dids",
      "outputs": [
        {
          "internalType": "address",
          "name": "owner",
          "type": "address"
        },
        {
          "internalType": "string",
          "name": "document",
          "type": "string"
        }
      ],
      "stateMutability": "view",
      "type": "function",
      "constant": true
    },
    {
      "inputs": [
        {
          "internalType": "string",
          "name": "did",
          "type": "string"
        },
        {
          "internalType": "string",
          "name": "document",
          "type": "string"
        }
      ],
      "name": "registerDID",
      "outputs": [],
      "stateMutability": "nonpayable",
      "type": "function"
    },
    {
      "inputs": [
        {
          "internalType": "string",
          "name": "did",
          "type": "string"
        }
      ],
      "name": "resolveDID",
      "outputs": [
        {
          "internalType": "string",
          "name": "",
          "type": "string"
        }
      ],
      "stateMutability": "view",
      "type": "function",
      "constant": true
    }
  ],
  "bytecode": "0x608060405234801561001057600080fd5b506108f1806100206000396000f3fe608060405234801561001057600080fd5b50600436106100415760003560e01c80637e5c39e9146100465780639d7f0bbf14610062578063f44ab51614610092575b600080fd5b610060600480360381019061005b9190610555565b6100c3565b005b61007c60048036038101906100779190610514565b610274565b60405161008991906106dc565b60405180910390f35b6100ac60048036038101906100a79190610514565b610327565b6040516100ba9291906106ac565b60405180910390f35b600073ffffffffffffffffffffffffffffffffffffffff166000836040516100eb919061067a565b908152602001604051809103902060000160009054906101000a900473ffffffffffffffffffffffffffffffffffffffff1673ffffffffffffffffffffffffffffffffffffffff1614610173576040517f08c379a000000000000000000000000000000000000000000000000000000000815260040161016a906106fe565b60405180910390fd5b60405180604001604052803373ffffffffffffffffffffffffffffffffffffffff168152602001828152506000836040516101ae919061067a565b908152602001604051809103902060008201518160000160006101000a81548173ffffffffffffffffffffffffffffffffffffffff021916908373ffffffffffffffffffffffffffffffffffffffff160217905550602082015181600101908051906020019061021f929190610409565b5090505081604051610231919061067a565b60405180910390207fd59e4d670f6e249831d6f8ce560f47ced54b3f4203e2d0050dc495fd6b919dd2336040516102689190610691565b60405180910390a25050565b6060600082604051610286919061067a565b908152602001604051809103902060010180546102a29061081a565b80601f01602080910402602001604051908101604052809291908181526020018280546102ce9061081a565b801561031b5780601f106102f05761010080835404028352916020019161031b565b820191906000526020600020905b8154815290600101906020018083116102fe57829003601f168201915b50505050509050919050565b6000818051602081018201805184825260208301602085012081835280955050505050506000915090508060000160009054906101000a900473ffffffffffffffffffffffffffffffffffffffff16908060010180546103869061081a565b80601f01602080910402602001604051908101604052809291908181526020018280546103b29061081a565b80156103ff5780601f106103d4576101008083540402835291602001916103ff565b820191906000526020600020905b8154815290600101906020018083116103e257829003601f168201915b5050505050905082565b8280546104159061081a565b90600052602060002090601f016020900481019282610437576000855561047e565b82601f1061045057805160ff191683800117855561047e565b8280016001018555821561047e579182015b8281111561047d578251825591602001919060010190610462565b5b50905061048b919061048f565b5090565b5b808211156104a8576000816000905550600101610490565b5090565b60006104bf6104ba8461074f565b61071e565b9050828152602081018484840111156104d757600080fd5b6104e28482856107d8565b509392505050565b600082601f8301126104fb57600080fd5b813561050b8482602086016104ac565b91505092915050565b60006020828403121561052657600080fd5b600082013567ffffffffffffffff81111561054057600080fd5b61054c848285016104ea565b91505092915050565b6000806040838503121561056857600080fd5b600083013567ffffffffffffffff81111561058257600080fd5b61058e858286016104ea565b925050602083013567ffffffffffffffff8111156105ab57600080fd5b6105b7858286016104ea565b9150509250929050565b6105ca816107a6565b82525050565b60006105db8261077f565b6105e5818561078a565b93506105f58185602086016107e7565b6105fe816108aa565b840191505092915050565b60006106148261077f565b61061e818561079b565b935061062e8185602086016107e7565b80840191505092915050565b600061064760128361078a565b91507f44494420616c72656164792065786973747300000000000000000000000000006000830152602082019050919050565b60006106868284610609565b915081905092915050565b60006020820190506106a660008301846105c1565b92915050565b60006040820190506106c160008301856105c1565b81810360208301526106d381846105d0565b90509392505050565b600060208201905081810360008301526106f681846105d0565b905092915050565b600060208201905081810360008301526107178161063a565b9050919050565b6000604051905081810181811067ffffffffffffffff821117156107455761074461087b565b5b8060405250919050565b600067ffffffffffffffff82111561076a5761076961087b565b5b601f19601f8301169050602081019050919050565b600081519050919050565b600082825260208201905092915050565b600081905092915050565b60006107b1826107b8565b9050919050565b600073ffffffffffffffffffffffffffffffffffffffff82169050919050565b82818337600083830152505050565b60005b838110156108055780820151818401526020810190506107ea565b83811115610814576000848401525b50505050565b6000600282049050600182168061083257607f821691505b602082108114156108465761084561084c565b5b50919050565b7f4e487b7100000000000000000000000000000000000000000000000000000000600052602260045260246000fd5b7f4e487b7100000000000000000000000000000000000000000000000000000000600052604160045260246000fd5b6000601f19601f830116905091905056fea2646970667358221220ac4b3d2e15f9553325e358c787bb6c313905314fb13a8d5470ed545ad4a4089d64736f6c63430008000033",
  "immutableReferences": {},
  "source": "// SPDX-License-Identifier: MIT\r\npragma solidity ^0.8.0;\r\n\r\ncontract DIDRegistry {\r\n    struct DID {\r\n        address owner;\r\n        string document;\r\n    }\r\n\r\n    mapping(string => DID) public dids;\r\n\r\n    event DIDRegistered(string indexed did, address owner);\r\n\r\n    function registerDID(string memory did, string memory document) public {\r\n        require(dids[did].owner == address(0), \"DID already exists\");\r\n        dids[did] = DID(msg.sender, document);\r\n        emit DIDRegistered(did, msg.sender);\r\n    }\r\n\r\n    function resolveDID(string memory did) public view returns (string memory) {\r\n        return dids[did].document;\r\n    }\r\n}",
  "sourcePath": "C:\\Users\\Raghav Sharma\\OneDrive\\Desktop\\decentralized-identity\\contracts\\contracts\\DIDRegistry.sol",
  "compiler": {
    "name": "solc",
    "version": "0.8.0+commit.c7dfd78e.Emscripten.clang"
  },
  "schemaVersion": "3.4.16",
  "updatedAt": "2025-02-03T07:47:14.526Z",
  "networkType": "ethereum",
  "devdoc": {
    "kind": "dev",
    "methods": {},
    "version": 1
  },
  "userdoc": {
    "kind": "user",
    "methods": {},
    "version": 1
  }
}